8=FIX.4.4|9=70|35=A|34=1|49=EXECUTOR|52=20240612-22:26:36.522|56=CLIENT2|98=0|108=30|10=092|8=FIX.4.4|9=58|35=0|34=2|49=EXECUTOR|52=20240612-22:27:06.803|56=CLIENT2|10=057|8=FIX.4.4|9=58|35=0|34=3|49=EXECUTOR|52=20240612-22:27:37.083|56=CLIENT2|10=062|8=FIX.4.4|9=58|35=0|34=4|49=EXECUTOR|52=20240612-22:28:07.381|56=CLIENT2|10=062|8=FIX.4.4|9=58|35=0|34=5|49=EXECUTOR|52=20240612-22:28:37.655|56=CLIENT2|10=070|