8=FIX.4.4|9=70|35=A|34=1|49=EXECUTOR|52=20240612-02:11:58.342|56=CLIENT2|98=0|108=30|10=088|8=FIX.4.4|9=94|35=8|34=2|49=EXECUTOR|52=20240612-02:12:13.894|56=CLIENT2|11=12|31=800|32=120|38=120|55=PETR4|10=007|8=FIX.4.4|9=67|35=0|34=3|49=EXECUTOR|52=20240612-02:12:35.100|56=CLIENT2|112=TEST|10=060|8=FIX.4.4|9=58|35=0|34=4|49=EXECUTOR|52=20240612-02:13:05.373|56=CLIENT2|10=053|8=FIX.4.4|9=58|35=0|34=5|49=EXECUTOR|52=20240612-02:13:35.648|56=CLIENT2|10=062|8=FIX.4.4|9=94|35=8|34=6|49=EXECUTOR|52=20240612-02:13:41.433|56=CLIENT2|11=12|31=800|32=120|38=120|55=PETR4|10=002|8=FIX.4.4|9=94|35=8|34=7|49=EXECUTOR|52=20240612-02:13:54.177|56=CLIENT2|11=12|31=800|32=120|38=120|55=PETR4|10=012|8=FIX.4.4|9=67|35=0|34=8|49=EXECUTOR|52=20240612-02:14:12.397|56=CLIENT2|112=TEST|10=080|8=FIX.4.4|9=88|35=8|34=9|49=EXECUTOR|52=20240612-02:14:12.769|56=CLIENT2|11=12|31=1|32=1|38=1|55=VALE3|10=212|8=FIX.4.4|9=59|35=0|34=10|49=EXECUTOR|52=20240612-02:14:43.089|56=CLIENT2|10=106|8=FIX.4.4|9=86|35=9|34=11|49=EXECUTOR|52=20240612-02:15:10.380|56=CLIENT2|11=1|37=1|39=4|41=12|434=1|10=001|8=FIX.4.4|9=59|35=0|34=12|49=EXECUTOR|52=20240612-02:15:40.711|56=CLIENT2|10=098|8=FIX.4.4|9=59|35=0|34=13|49=EXECUTOR|52=20240612-02:16:11.014|56=CLIENT2|10=094|8=FIX.4.4|9=59|35=0|34=14|49=EXECUTOR|52=20240612-02:16:41.293|56=CLIENT2|10=107|8=FIX.4.4|9=59|35=0|34=15|49=EXECUTOR|52=20240612-02:17:11.603|56=CLIENT2|10=101|8=FIX.4.4|9=59|35=0|34=16|49=EXECUTOR|52=20240612-02:17:41.949|56=CLIENT2|10=118|8=FIX.4.4|9=59|35=0|34=17|49=EXECUTOR|52=20240612-02:18:12.279|56=CLIENT2|10=114|8=FIX.4.4|9=59|35=0|34=18|49=EXECUTOR|52=20240612-02:18:42.585|56=CLIENT2|10=118|8=FIX.4.4|9=59|35=0|34=19|49=EXECUTOR|52=20240612-02:19:12.899|56=CLIENT2|10=125|8=FIX.4.4|9=59|35=0|34=20|49=EXECUTOR|52=20240612-02:19:43.187|56=CLIENT2|10=111|8=FIX.4.4|9=59|35=0|34=21|49=EXECUTOR|52=20240612-02:20:13.488|56=CLIENT2|10=105|8=FIX.4.4|9=59|35=0|34=22|49=EXECUTOR|52=20240612-02:20:43.788|56=CLIENT2|10=112|8=FIX.4.4|9=59|35=0|34=23|49=EXECUTOR|52=20240612-02:21:14.103|56=CLIENT2|10=093|8=FIX.4.4|9=59|35=0|34=24|49=EXECUTOR|52=20240612-02:21:44.463|56=CLIENT2|10=106|8=FIX.4.4|9=59|35=0|34=25|49=EXECUTOR|52=20240612-02:22:14.767|56=CLIENT2|10=112|